{
  "_format": "hh3-artifact-1",
  "contractName": "TokenizationManager",
  "sourceName": "contracts/TokenizationManager.sol",
  "abi": [
    {
      "inputs": [
        {
          "internalType": "address",
          "name": "_deed",
          "type": "address"
        },
        {
          "internalType": "address",
          "name": "_fractionsImp",
          "type": "address"
        }
      ],
      "stateMutability": "nonpayable",
      "type": "constructor"
    },
    {
      "inputs": [],
      "name": "EnforcedPause",
      "type": "error"
    },
    {
      "inputs": [],
      "name": "ExpectedPause",
      "type": "error"
    },
    {
      "inputs": [],
      "name": "FailedDeployment",
      "type": "error"
    },
    {
      "inputs": [
        {
          "internalType": "uint256",
          "name": "balance",
          "type": "uint256"
        },
        {
          "internalType": "uint256",
          "name": "needed",
          "type": "uint256"
        }
      ],
      "name": "InsufficientBalance",
      "type": "error"
    },
    {
      "inputs": [
        {
          "internalType": "address",
          "name": "owner",
          "type": "address"
        }
      ],
      "name": "OwnableInvalidOwner",
      "type": "error"
    },
    {
      "inputs": [
        {
          "internalType": "address",
          "name": "account",
          "type": "address"
        }
      ],
      "name": "OwnableUnauthorizedAccount",
      "type": "error"
    },
    {
      "inputs": [],
      "name": "ReentrancyGuardReentrantCall",
      "type": "error"
    },
    {
      "inputs": [
        {
          "internalType": "address",
          "name": "token",
          "type": "address"
        }
      ],
      "name": "SafeERC20FailedOperation",
      "type": "error"
    },
    {
      "anonymous": false,
      "inputs": [
        {
          "indexed": true,
          "internalType": "uint256",
          "name": "propertyId",
          "type": "uint256"
        }
      ],
      "name": "DistributionClosed",
      "type": "event"
    },
    {
      "anonymous": false,
      "inputs": [
        {
          "indexed": true,
          "internalType": "uint256",
          "name": "propertyId",
          "type": "uint256"
        }
      ],
      "name": "DistributionPaused",
      "type": "event"
    },
    {
      "anonymous": false,
      "inputs": [
        {
          "indexed": true,
          "internalType": "uint256",
          "name": "propertyId",
          "type": "uint256"
        }
      ],
      "name": "DistributionResumed",
      "type": "event"
    },
    {
      "anonymous": false,
      "inputs": [
        {
          "indexed": true,
          "internalType": "uint256",
          "name": "propertyId",
          "type": "uint256"
        },
        {
          "indexed": false,
          "internalType": "uint256",
          "name": "pricePerFraction",
          "type": "uint256"
        }
      ],
      "name": "DistributionStarted",
      "type": "event"
    },
    {
      "anonymous": false,
      "inputs": [
        {
          "indexed": true,
          "internalType": "uint256",
          "name": "propertyId",
          "type": "uint256"
        },
        {
          "indexed": true,
          "internalType": "address",
          "name": "buyer",
          "type": "address"
        },
        {
          "indexed": false,
          "internalType": "uint256",
          "name": "amount",
          "type": "uint256"
        },
        {
          "indexed": false,
          "internalType": "uint256",
          "name": "cost",
          "type": "uint256"
        }
      ],
      "name": "FractionsPurchased",
      "type": "event"
    },
    {
      "anonymous": false,
      "inputs": [
        {
          "indexed": true,
          "internalType": "address",
          "name": "previousOwner",
          "type": "address"
        },
        {
          "indexed": true,
          "internalType": "address",
          "name": "newOwner",
          "type": "address"
        }
      ],
      "name": "OwnershipTransferred",
      "type": "event"
    },
    {
      "anonymous": false,
      "inputs": [
        {
          "indexed": false,
          "internalType": "address",
          "name": "account",
          "type": "address"
        }
      ],
      "name": "Paused",
      "type": "event"
    },
    {
      "anonymous": false,
      "inputs": [
        {
          "indexed": true,
          "internalType": "uint256",
          "name": "propertyId",
          "type": "uint256"
        },
        {
          "indexed": true,
          "internalType": "address",
          "name": "owner",
          "type": "address"
        },
        {
          "indexed": false,
          "internalType": "uint256",
          "name": "amount",
          "type": "uint256"
        }
      ],
      "name": "ProceedsWithdrawn",
      "type": "event"
    },
    {
      "anonymous": false,
      "inputs": [
        {
          "indexed": true,
          "internalType": "uint256",
          "name": "propertyId",
          "type": "uint256"
        },
        {
          "indexed": true,
          "internalType": "address",
          "name": "owner",
          "type": "address"
        },
        {
          "indexed": false,
          "internalType": "address",
          "name": "fractionsContract",
          "type": "address"
        },
        {
          "indexed": false,
          "internalType": "uint256",
          "name": "totalSupply",
          "type": "uint256"
        }
      ],
      "name": "PropertyTokenized",
      "type": "event"
    },
    {
      "anonymous": false,
      "inputs": [
        {
          "indexed": false,
          "internalType": "address",
          "name": "account",
          "type": "address"
        }
      ],
      "name": "Unpaused",
      "type": "event"
    },
    {
      "inputs": [
        {
          "internalType": "uint256",
          "name": "_propertyId",
          "type": "uint256"
        },
        {
          "internalType": "uint128",
          "name": "_amount",
          "type": "uint128"
        }
      ],
      "name": "buyFractions",
      "outputs": [],
      "stateMutability": "payable",
      "type": "function"
    },
    {
      "inputs": [
        {
          "internalType": "uint256",
          "name": "propertyId",
          "type": "uint256"
        }
      ],
      "name": "closeDistribution",
      "outputs": [],
      "stateMutability": "nonpayable",
      "type": "function"
    },
    {
      "inputs": [],
      "name": "deed",
      "outputs": [
        {
          "internalType": "contract PropertyDeed",
          "name": "",
          "type": "address"
        }
      ],
      "stateMutability": "view",
      "type": "function"
    },
    {
      "inputs": [],
      "name": "fractionsImp",
      "outputs": [
        {
          "internalType": "address",
          "name": "",
          "type": "address"
        }
      ],
      "stateMutability": "view",
      "type": "function"
    },
    {
      "inputs": [
        {
          "internalType": "uint256",
          "name": "propertyId",
          "type": "uint256"
        }
      ],
      "name": "getPropertyState",
      "outputs": [
        {
          "internalType": "enum TokenizationManager.DistributionState",
          "name": "",
          "type": "uint8"
        }
      ],
      "stateMutability": "view",
      "type": "function"
    },
    {
      "inputs": [
        {
          "internalType": "uint256",
          "name": "propertyId",
          "type": "uint256"
        }
      ],
      "name": "getRemainingFractions",
      "outputs": [
        {
          "internalType": "uint256",
          "name": "",
          "type": "uint256"
        }
      ],
      "stateMutability": "view",
      "type": "function"
    },
    {
      "inputs": [],
      "name": "owner",
      "outputs": [
        {
          "internalType": "address",
          "name": "",
          "type": "address"
        }
      ],
      "stateMutability": "view",
      "type": "function"
    },
    {
      "inputs": [],
      "name": "pause",
      "outputs": [],
      "stateMutability": "nonpayable",
      "type": "function"
    },
    {
      "inputs": [
        {
          "internalType": "uint256",
          "name": "propertyId",
          "type": "uint256"
        }
      ],
      "name": "pauseDistribution",
      "outputs": [],
      "stateMutability": "nonpayable",
      "type": "function"
    },
    {
      "inputs": [],
      "name": "paused",
      "outputs": [
        {
          "internalType": "bool",
          "name": "",
          "type": "bool"
        }
      ],
      "stateMutability": "view",
      "type": "function"
    },
    {
      "inputs": [
        {
          "internalType": "uint256",
          "name": "",
          "type": "uint256"
        }
      ],
      "name": "properties",
      "outputs": [
        {
          "internalType": "address",
          "name": "originalOwner",
          "type": "address"
        },
        {
          "internalType": "address",
          "name": "fractions",
          "type": "address"
        },
        {
          "internalType": "uint128",
          "name": "pricePerFraction",
          "type": "uint128"
        },
        {
          "internalType": "uint128",
          "name": "remainingFractions",
          "type": "uint128"
        },
        {
          "internalType": "uint256",
          "name": "proceeds",
          "type": "uint256"
        },
        {
          "internalType": "uint256",
          "name": "tokenId",
          "type": "uint256"
        },
        {
          "internalType": "enum TokenizationManager.DistributionState",
          "name": "distributionState",
          "type": "uint8"
        }
      ],
      "stateMutability": "view",
      "type": "function"
    },
    {
      "inputs": [],
      "name": "propertyCount",
      "outputs": [
        {
          "internalType": "uint256",
          "name": "",
          "type": "uint256"
        }
      ],
      "stateMutability": "view",
      "type": "function"
    },
    {
      "inputs": [],
      "name": "renounceOwnership",
      "outputs": [],
      "stateMutability": "nonpayable",
      "type": "function"
    },
    {
      "inputs": [
        {
          "internalType": "uint256",
          "name": "propertyId",
          "type": "uint256"
        }
      ],
      "name": "resumeDistribution",
      "outputs": [],
      "stateMutability": "nonpayable",
      "type": "function"
    },
    {
      "inputs": [
        {
          "internalType": "uint256",
          "name": "_propertyId",
          "type": "uint256"
        },
        {
          "internalType": "uint128",
          "name": "_pricePerFraction",
          "type": "uint128"
        }
      ],
      "name": "startDistribution",
      "outputs": [],
      "stateMutability": "nonpayable",
      "type": "function"
    },
    {
      "inputs": [
        {
          "internalType": "string",
          "name": "_uri",
          "type": "string"
        },
        {
          "internalType": "string",
          "name": "_name",
          "type": "string"
        },
        {
          "internalType": "string",
          "name": "_symbol",
          "type": "string"
        },
        {
          "internalType": "uint128",
          "name": "_totalSupply",
          "type": "uint128"
        }
      ],
      "name": "tokenizeProperty",
      "outputs": [],
      "stateMutability": "nonpayable",
      "type": "function"
    },
    {
      "inputs": [
        {
          "internalType": "address",
          "name": "newOwner",
          "type": "address"
        }
      ],
      "name": "transferOwnership",
      "outputs": [],
      "stateMutability": "nonpayable",
      "type": "function"
    },
    {
      "inputs": [],
      "name": "unpause",
      "outputs": [],
      "stateMutability": "nonpayable",
      "type": "function"
    },
    {
      "inputs": [
        {
          "internalType": "uint256",
          "name": "_propertyId",
          "type": "uint256"
        }
      ],
      "name": "withdrawProceeds",
      "outputs": [],
      "stateMutability": "nonpayable",
      "type": "function"
    }
  ],
  "bytecode": "0x60c060405234801562000010575f80fd5b50604051620018033803806200180383398101604081905262000033916200014b565b33806200005a57604051631e4fbdf760e01b81525f60048201526024015b60405180910390fd5b6200006581620000e0565b50600180556001600160a01b038216158015906200008b57506001600160a01b03811615155b620000c85760405162461bcd60e51b815260206004820152600c60248201526b7a65726f206164647265737360a01b604482015260640162000051565b6001600160a01b039182166080521660a05262000181565b5f80546001600160a01b038381166001600160a01b0319831681178455604051919092169283917f8be0079c531659141344cd1fd0a4f28419497f9722a3daafe3b4186f6b6457e09190a35050565b80516001600160a01b038116811462000146575f80fd5b919050565b5f80604083850312156200015d575f80fd5b62000168836200012f565b915062000178602084016200012f565b90509250929050565b60805160a051611652620001b15f395f818161035901526109ef01525f81816102f2015261096f01526116525ff3fe608060405260043610610110575f3560e01c806388cded1c1161009d578063c361a33511610062578063c361a33514610314578063d9f1aed914610329578063de8ad58514610348578063f2fde38b1461037b578063f7b108081461039a575f80fd5b806388cded1c146102355780638ca0f42f146102545780638da5cb5b1461027357806390afd28b146102a3578063c2f1e6bd146102e1575f80fd5b8063598e1cda116100e3578063598e1cda1461017b5780635c975abb146101cc578063715018a6146101ee5780638456cb591461020257806385cede9c14610216575f80fd5b806322f9c4531461011457806336da062d146101295780633e424e51146101485780633f4ba83a14610167575b5f80fd5b6101276101223660046112ca565b61041f565b005b348015610134575f80fd5b506101276101433660046112f4565b610716565b348015610153575f80fd5b506101276101623660046112f4565b6107f3565b348015610172575f80fd5b506101276108d2565b348015610186575f80fd5b506101b96101953660046112f4565b5f90815260046020526040902060020154600160801b90046001600160801b031690565b6040519081526020015b60405180910390f35b3480156101d7575f80fd5b5060025460ff1660405190151581526020016101c3565b3480156101f9575f80fd5b506101276108e4565b34801561020d575f80fd5b506101276108f5565b348015610221575f80fd5b50610127610230366004611350565b610905565b348015610240575f80fd5b5061012761024f3660046112f4565b610be0565b34801561025f575f80fd5b5061012761026e3660046112ca565b610cc3565b34801561027e575f80fd5b505f546001600160a01b03165b6040516001600160a01b0390911681526020016101c3565b3480156102ae575f80fd5b506102d46102bd3660046112f4565b5f9081526004602052604090206005015460ff1690565b6040516101c39190611427565b3480156102ec575f80fd5b5061028b7f000000000000000000000000000000000000000000000000000000000000000081565b34801561031f575f80fd5b506101b960035481565b348015610334575f80fd5b506101276103433660046112f4565b610e24565b348015610353575f80fd5b5061028b7f000000000000000000000000000000000000000000000000000000000000000081565b348015610386575f80fd5b50610127610395366004611435565b610f8c565b3480156103a5575f80fd5b5061040c6103b43660046112f4565b600460208190525f91825260409091208054600182015460028301546003840154948401546005909401546001600160a01b039384169593909216936001600160801b0380831694600160801b909304169260ff1687565b6040516101c39796959493929190611462565b610427610fc6565b61042f610ff0565b5f816001600160801b0316116104795760405162461bcd60e51b815260206004820152600a6024820152690616d6f756e74203e20360b41b60448201526064015b60405180910390fd5b5f8281526004602052604090206001600582015460ff1660038111156104a1576104a16113f3565b146104ee5760405162461bcd60e51b815260206004820152601760248201527f646973747269627574696f6e206e6f74206163746976650000000000000000006044820152606401610470565b60028101545f90610508906001600160801b0316846114cc565b6001600160801b03169050803410156105585760405162461bcd60e51b8152602060048201526012602482015271696e73756666696369656e742066756e647360701b6044820152606401610470565b60028201546001600160801b03808516600160801b9092041610156105bf5760405162461bcd60e51b815260206004820181905260248201527f696e73756666696369656e742072656d61696e696e67206672616374696f6e736044820152606401610470565b60018201546003830180546001600160a01b03909216918391905f906105e69084906114f7565b90915550506002830180546001600160801b03600160801b80830482168890038216029181169190911790915561062b906001600160a01b0383169033908716611014565b813411156106c0575f3361063f843461150a565b6040515f81818185875af1925050503d805f8114610678576040519150601f19603f3d011682016040523d82523d5f602084013e61067d565b606091505b50509050806106be5760405162461bcd60e51b815260206004820152600d60248201526c1c99599d5b990819985a5b1959609a1b6044820152606401610470565b505b604080516001600160801b038616815260208101849052339187917f4baafac02d651b8886d3212cc69aff0fb3c687080a4fe86b0674563ac1493e82910160405180910390a350505061071260018055565b5050565b61071e610ff0565b5f8181526004602052604090205481906001600160a01b031633146107555760405162461bcd60e51b81526004016104709061151d565b5f8281526004602052604090206001600582015460ff16600381111561077d5761077d6113f3565b146107b55760405162461bcd60e51b8152602060048201526008602482015267496e61637469766560c01b6044820152606401610470565b60058101805460ff1916600217905560405183907f97eb43a9e50b43fcb6db5ca1cc629c89456e77d3651f07cb4e94fdf04bb5f755905f90a2505050565b6107fb610ff0565b5f8181526004602052604090205481906001600160a01b031633146108325760405162461bcd60e51b81526004016104709061151d565b5f8281526004602052604090206002600582015460ff16600381111561085a5761085a6113f3565b146108945760405162461bcd60e51b815260206004820152600a602482015269139bdd081c185d5cd95960b21b6044820152606401610470565b60058101805460ff1916600117905560405183907f19767875be2b805d1e7a29683e4de87917beb9c3525bfb39ca5f49106128cdaa905f90a2505050565b6108da61106b565b6108e2611097565b565b6108ec61106b565b6108e25f6110e9565b6108fd61106b565b6108e2611138565b61090d610ff0565b5f816001600160801b0316116109575760405162461bcd60e51b815260206004820152600f60248201526e0746f74616c737570706c79203e203608c1b6044820152606401610470565b6040516275a31760e01b81525f906001600160a01b037f000000000000000000000000000000000000000000000000000000000000000016906275a317906109a79030908c908c90600401611568565b6020604051808303815f875af11580156109c3573d5f803e3d5ffd5b505050506040513d601f19601f820116820180604052508101906109e79190611595565b90505f610a137f0000000000000000000000000000000000000000000000000000000000000000611175565b6040516333eea18160e01b81529091506001600160a01b038216906333eea18190610a4e908a908a908a908a908a908a9030906004016115ac565b5f604051808303815f87803b158015610a65575f80fd5b505af1158015610a77573d5f803e3d5ffd5b505060038054925090505f610a8b83611604565b90915550506040805160e0810182523381526001600160a01b03831660208201525f9181018290526001600160801b03851660608201526080810182905260a081018490529060c0820152600380545f90815260046020818152604092839020855181546001600160a01b039182166001600160a01b0319918216178355928701516001808401805492909316919094161790559285015160608601516001600160801b03908116600160801b02911617600284015560808501518385015560a08501519183019190915560c084015160058301805493949193909260ff19909116918490811115610b7f57610b7f6113f3565b021790555050600354604080516001600160a01b03851681526001600160801b03871660208201523393507f9be456a9f7c781fde270f2c57aaaa7e6fb2bf7d75a493fd45ce49a911de6b0e3910160405180910390a3505050505050505050565b610be8610ff0565b5f8181526004602052604090205481906001600160a01b03163314610c1f5760405162461bcd60e51b81526004016104709061151d565b5f8281526004602052604090206003600582015460ff166003811115610c4757610c476113f3565b03610c855760405162461bcd60e51b815260206004820152600e60248201526d105b1c9958591e4818db1bdcd95960921b6044820152606401610470565b60058101805460ff1916600317905560405183907fbfc8d19575ca9129c14e8905cdb2ac08397e2f94ca794e5ee5db4756dcefa6d0905f90a2505050565b610ccb610ff0565b5f8281526004602052604090205482906001600160a01b03163314610d025760405162461bcd60e51b81526004016104709061151d565b5f83815260046020526040812090600582015460ff166003811115610d2957610d296113f3565b14610d6c5760405162461bcd60e51b8152602060048201526013602482015272646973747269627574696f6e2061637469766560681b6044820152606401610470565b5f836001600160801b031611610db05760405162461bcd60e51b815260206004820152600960248201526807072696365203e20360bc1b6044820152606401610470565b6002810180546001600160801b0385166fffffffffffffffffffffffffffffffff19909116811790915560058201805460ff1916600117905560405190815284907fbd7588635206d7b20876473e48ff15abf7595aafd6c3f0189dcd7dfc07e7a4979060200160405180910390a250505050565b610e2c610ff0565b610e34610fc6565b5f8181526004602052604090205481906001600160a01b03163314610e6b5760405162461bcd60e51b81526004016104709061151d565b5f828152600460205260409020600381015480610eb85760405162461bcd60e51b815260206004820152600b60248201526a6e6f2070726f636565647360a81b6044820152606401610470565b5f60038301819055604051339083908381818185875af1925050503d805f8114610efd576040519150601f19603f3d011682016040523d82523d5f602084013e610f02565b606091505b5050905080610f455760405162461bcd60e51b815260206004820152600f60248201526e1dda5d1a191c985dc819985a5b1959608a1b6044820152606401610470565b604051828152339086907f579e0e2d0cfdb23711bb6034ac9f2ba41e8965a8e24589d1c3cf5604868661fc9060200160405180910390a350505050610f8960018055565b50565b610f9461106b565b6001600160a01b038116610fbd57604051631e4fbdf760e01b81525f6004820152602401610470565b610f89816110e9565b600260015403610fe957604051633ee5aeb560e01b815260040160405180910390fd5b6002600155565b60025460ff16156108e25760405163d93c066560e01b815260040160405180910390fd5b604080516001600160a01b038416602482015260448082018490528251808303909101815260649091019091526020810180516001600160e01b031663a9059cbb60e01b179052611066908490611186565b505050565b5f546001600160a01b031633146108e25760405163118cdaa760e01b8152336004820152602401610470565b61109f6111f8565b6002805460ff191690557f5db9ee0a495bf2e6ff9c91a7834c1ba4fdd244a5e8aa4e537bd38aeae4b073aa335b6040516001600160a01b03909116815260200160405180910390a1565b5f80546001600160a01b038381166001600160a01b0319831681178455604051919092169283917f8be0079c531659141344cd1fd0a4f28419497f9722a3daafe3b4186f6b6457e09190a35050565b611140610ff0565b6002805460ff191660011790557f62e78cea01bee320cd4e420270b5ea74000d11b0c9f74754ebdbfc544b05a2586110cc3390565b5f611180825f61121b565b92915050565b5f8060205f8451602086015f885af1806111a5576040513d5f823e3d81fd5b50505f513d915081156111bc5780600114156111c9565b6001600160a01b0384163b155b156111f257604051635274afe760e01b81526001600160a01b0385166004820152602401610470565b50505050565b60025460ff166108e257604051638dfc202b60e01b815260040160405180910390fd5b5f814710156112465760405163cf47918160e01b815247600482015260248101839052604401610470565b763d602d80600a3d3981f3363d3d373d3d3d363d730000008360601b60e81c175f526e5af43d82803e903d91602b57fd5bf38360781b176020526037600983f090506001600160a01b0381166111805760405163b06ebf3d60e01b815260040160405180910390fd5b80356001600160801b03811681146112c5575f80fd5b919050565b5f80604083850312156112db575f80fd5b823591506112eb602084016112af565b90509250929050565b5f60208284031215611304575f80fd5b5035919050565b5f8083601f84011261131b575f80fd5b50813567ffffffffffffffff811115611332575f80fd5b602083019150836020828501011115611349575f80fd5b9250929050565b5f805f805f805f6080888a031215611366575f80fd5b873567ffffffffffffffff8082111561137d575f80fd5b6113898b838c0161130b565b909950975060208a01359150808211156113a1575f80fd5b6113ad8b838c0161130b565b909750955060408a01359150808211156113c5575f80fd5b506113d28a828b0161130b565b90945092506113e59050606089016112af565b905092959891949750929550565b634e487b7160e01b5f52602160045260245ffd5b6004811061142357634e487b7160e01b5f52602160045260245ffd5b9052565b602081016111808284611407565b5f60208284031215611445575f80fd5b81356001600160a01b038116811461145b575f80fd5b9392505050565b6001600160a01b038881168252871660208201526001600160801b038681166040830152851660608201526080810184905260a0810183905260e081016114ac60c0830184611407565b98975050505050505050565b634e487b7160e01b5f52601160045260245ffd5b6001600160801b038181168382160280821691908281146114ef576114ef6114b8565b505092915050565b80820180821115611180576111806114b8565b81810381811115611180576111806114b8565b6020808252600990820152683737ba1037bbb732b960b91b604082015260600190565b81835281816020850137505f828201602090810191909152601f909101601f19169091010190565b6001600160a01b03841681526040602082018190525f9061158c9083018486611540565b95945050505050565b5f602082840312156115a5575f80fd5b5051919050565b60a081525f6115bf60a08301898b611540565b82810360208401526115d281888a611540565b6001600160801b03969096166040840152505060608101929092526001600160a01b0316608090910152949350505050565b5f60018201611615576116156114b8565b506001019056fea2646970667358221220e956b05cd0554f8c5afadfc542aea4980fb4b66608c87f1a1c9f65f7dbe42f4c64736f6c63430008180033",
  "linkReferences": {},
  "deployedLinkReferences": {},
  "immutableReferences": {
    "9115": [
      {
        "length": 32,
        "start": 754
      },
      {
        "length": 32,
        "start": 2415
      }
    ],
    "9117": [
      {
        "length": 32,
        "start": 857
      },
      {
        "length": 32,
        "start": 2543
      }
    ]
  },
  "inputSourceName": "project/contracts/TokenizationManager.sol",
  "buildInfoId": "solc-0_8_24-9b1429fd8df6f6b8cfa8a2a24367d942a40bcb08"
}