{
  "_format": "hh3-artifact-1",
  "contractName": "PropertyDeed",
  "sourceName": "contracts/PropertyDeed.sol",
  "abi": [
    {
      "inputs": [],
      "stateMutability": "nonpayable",
      "type": "constructor"
    },
    {
      "inputs": [
        {
          "internalType": "address",
          "name": "sender",
          "type": "address"
        },
        {
          "internalType": "uint256",
          "name": "tokenId",
          "type": "uint256"
        },
        {
          "internalType": "address",
          "name": "owner",
          "type": "address"
        }
      ],
      "name": "ERC721IncorrectOwner",
      "type": "error"
    },
    {
      "inputs": [
        {
          "internalType": "address",
          "name": "operator",
          "type": "address"
        },
        {
          "internalType": "uint256",
          "name": "tokenId",
          "type": "uint256"
        }
      ],
      "name": "ERC721InsufficientApproval",
      "type": "error"
    },
    {
      "inputs": [
        {
          "internalType": "address",
          "name": "approver",
          "type": "address"
        }
      ],
      "name": "ERC721InvalidApprover",
      "type": "error"
    },
    {
      "inputs": [
        {
          "internalType": "address",
          "name": "operator",
          "type": "address"
        }
      ],
      "name": "ERC721InvalidOperator",
      "type": "error"
    },
    {
      "inputs": [
        {
          "internalType": "address",
          "name": "owner",
          "type": "address"
        }
      ],
      "name": "ERC721InvalidOwner",
      "type": "error"
    },
    {
      "inputs": [
        {
          "internalType": "address",
          "name": "receiver",
          "type": "address"
        }
      ],
      "name": "ERC721InvalidReceiver",
      "type": "error"
    },
    {
      "inputs": [
        {
          "internalType": "address",
          "name": "sender",
          "type": "address"
        }
      ],
      "name": "ERC721InvalidSender",
      "type": "error"
    },
    {
      "inputs": [
        {
          "internalType": "uint256",
          "name": "tokenId",
          "type": "uint256"
        }
      ],
      "name": "ERC721NonexistentToken",
      "type": "error"
    },
    {
      "inputs": [
        {
          "internalType": "address",
          "name": "owner",
          "type": "address"
        }
      ],
      "name": "OwnableInvalidOwner",
      "type": "error"
    },
    {
      "inputs": [
        {
          "internalType": "address",
          "name": "account",
          "type": "address"
        }
      ],
      "name": "OwnableUnauthorizedAccount",
      "type": "error"
    },
    {
      "anonymous": false,
      "inputs": [
        {
          "indexed": true,
          "internalType": "address",
          "name": "owner",
          "type": "address"
        },
        {
          "indexed": true,
          "internalType": "address",
          "name": "approved",
          "type": "address"
        },
        {
          "indexed": true,
          "internalType": "uint256",
          "name": "tokenId",
          "type": "uint256"
        }
      ],
      "name": "Approval",
      "type": "event"
    },
    {
      "anonymous": false,
      "inputs": [
        {
          "indexed": true,
          "internalType": "address",
          "name": "owner",
          "type": "address"
        },
        {
          "indexed": true,
          "internalType": "address",
          "name": "operator",
          "type": "address"
        },
        {
          "indexed": false,
          "internalType": "bool",
          "name": "approved",
          "type": "bool"
        }
      ],
      "name": "ApprovalForAll",
      "type": "event"
    },
    {
      "anonymous": false,
      "inputs": [
        {
          "indexed": false,
          "internalType": "uint256",
          "name": "_fromTokenId",
          "type": "uint256"
        },
        {
          "indexed": false,
          "internalType": "uint256",
          "name": "_toTokenId",
          "type": "uint256"
        }
      ],
      "name": "BatchMetadataUpdate",
      "type": "event"
    },
    {
      "anonymous": false,
      "inputs": [
        {
          "indexed": false,
          "internalType": "uint256",
          "name": "_tokenId",
          "type": "uint256"
        }
      ],
      "name": "MetadataUpdate",
      "type": "event"
    },
    {
      "anonymous": false,
      "inputs": [
        {
          "indexed": true,
          "internalType": "address",
          "name": "previousOwner",
          "type": "address"
        },
        {
          "indexed": true,
          "internalType": "address",
          "name": "newOwner",
          "type": "address"
        }
      ],
      "name": "OwnershipTransferred",
      "type": "event"
    },
    {
      "anonymous": false,
      "inputs": [
        {
          "indexed": true,
          "internalType": "address",
          "name": "from",
          "type": "address"
        },
        {
          "indexed": true,
          "internalType": "address",
          "name": "to",
          "type": "address"
        },
        {
          "indexed": true,
          "internalType": "uint256",
          "name": "tokenId",
          "type": "uint256"
        }
      ],
      "name": "Transfer",
      "type": "event"
    },
    {
      "inputs": [
        {
          "internalType": "address",
          "name": "to",
          "type": "address"
        },
        {
          "internalType": "uint256",
          "name": "tokenId",
          "type": "uint256"
        }
      ],
      "name": "approve",
      "outputs": [],
      "stateMutability": "nonpayable",
      "type": "function"
    },
    {
      "inputs": [
        {
          "internalType": "address",
          "name": "owner",
          "type": "address"
        }
      ],
      "name": "balanceOf",
      "outputs": [
        {
          "internalType": "uint256",
          "name": "",
          "type": "uint256"
        }
      ],
      "stateMutability": "view",
      "type": "function"
    },
    {
      "inputs": [
        {
          "internalType": "uint256",
          "name": "tokenId",
          "type": "uint256"
        }
      ],
      "name": "getApproved",
      "outputs": [
        {
          "internalType": "address",
          "name": "",
          "type": "address"
        }
      ],
      "stateMutability": "view",
      "type": "function"
    },
    {
      "inputs": [
        {
          "internalType": "address",
          "name": "owner",
          "type": "address"
        },
        {
          "internalType": "address",
          "name": "operator",
          "type": "address"
        }
      ],
      "name": "isApprovedForAll",
      "outputs": [
        {
          "internalType": "bool",
          "name": "",
          "type": "bool"
        }
      ],
      "stateMutability": "view",
      "type": "function"
    },
    {
      "inputs": [
        {
          "internalType": "address",
          "name": "to",
          "type": "address"
        },
        {
          "internalType": "string",
          "name": "uri",
          "type": "string"
        }
      ],
      "name": "mintTo",
      "outputs": [
        {
          "internalType": "uint256",
          "name": "",
          "type": "uint256"
        }
      ],
      "stateMutability": "nonpayable",
      "type": "function"
    },
    {
      "inputs": [],
      "name": "name",
      "outputs": [
        {
          "internalType": "string",
          "name": "",
          "type": "string"
        }
      ],
      "stateMutability": "view",
      "type": "function"
    },
    {
      "inputs": [],
      "name": "owner",
      "outputs": [
        {
          "internalType": "address",
          "name": "",
          "type": "address"
        }
      ],
      "stateMutability": "view",
      "type": "function"
    },
    {
      "inputs": [
        {
          "internalType": "uint256",
          "name": "tokenId",
          "type": "uint256"
        }
      ],
      "name": "ownerOf",
      "outputs": [
        {
          "internalType": "address",
          "name": "",
          "type": "address"
        }
      ],
      "stateMutability": "view",
      "type": "function"
    },
    {
      "inputs": [],
      "name": "renounceOwnership",
      "outputs": [],
      "stateMutability": "nonpayable",
      "type": "function"
    },
    {
      "inputs": [
        {
          "internalType": "address",
          "name": "from",
          "type": "address"
        },
        {
          "internalType": "address",
          "name": "to",
          "type": "address"
        },
        {
          "internalType": "uint256",
          "name": "tokenId",
          "type": "uint256"
        }
      ],
      "name": "safeTransferFrom",
      "outputs": [],
      "stateMutability": "nonpayable",
      "type": "function"
    },
    {
      "inputs": [
        {
          "internalType": "address",
          "name": "from",
          "type": "address"
        },
        {
          "internalType": "address",
          "name": "to",
          "type": "address"
        },
        {
          "internalType": "uint256",
          "name": "tokenId",
          "type": "uint256"
        },
        {
          "internalType": "bytes",
          "name": "data",
          "type": "bytes"
        }
      ],
      "name": "safeTransferFrom",
      "outputs": [],
      "stateMutability": "nonpayable",
      "type": "function"
    },
    {
      "inputs": [
        {
          "internalType": "address",
          "name": "operator",
          "type": "address"
        },
        {
          "internalType": "bool",
          "name": "approved",
          "type": "bool"
        }
      ],
      "name": "setApprovalForAll",
      "outputs": [],
      "stateMutability": "nonpayable",
      "type": "function"
    },
    {
      "inputs": [
        {
          "internalType": "bytes4",
          "name": "interfaceId",
          "type": "bytes4"
        }
      ],
      "name": "supportsInterface",
      "outputs": [
        {
          "internalType": "bool",
          "name": "",
          "type": "bool"
        }
      ],
      "stateMutability": "view",
      "type": "function"
    },
    {
      "inputs": [],
      "name": "symbol",
      "outputs": [
        {
          "internalType": "string",
          "name": "",
          "type": "string"
        }
      ],
      "stateMutability": "view",
      "type": "function"
    },
    {
      "inputs": [],
      "name": "tokenId",
      "outputs": [
        {
          "internalType": "uint256",
          "name": "",
          "type": "uint256"
        }
      ],
      "stateMutability": "view",
      "type": "function"
    },
    {
      "inputs": [
        {
          "internalType": "uint256",
          "name": "tokenId",
          "type": "uint256"
        }
      ],
      "name": "tokenURI",
      "outputs": [
        {
          "internalType": "string",
          "name": "",
          "type": "string"
        }
      ],
      "stateMutability": "view",
      "type": "function"
    },
    {
      "inputs": [
        {
          "internalType": "address",
          "name": "from",
          "type": "address"
        },
        {
          "internalType": "address",
          "name": "to",
          "type": "address"
        },
        {
          "internalType": "uint256",
          "name": "tokenId",
          "type": "uint256"
        }
      ],
      "name": "transferFrom",
      "outputs": [],
      "stateMutability": "nonpayable",
      "type": "function"
    },
    {
      "inputs": [
        {
          "internalType": "address",
          "name": "newOwner",
          "type": "address"
        }
      ],
      "name": "transferOwnership",
      "outputs": [],
      "stateMutability": "nonpayable",
      "type": "function"
    }
  ],
  "bytecode": "0x608060405234801562000010575f80fd5b50336040518060400160405280600c81526020016b141c9bdc195c9d1e5119595960a21b815250604051806040016040528060048152602001631119595960e21b815250815f9081620000649190620001a5565b506001620000738282620001a5565b5050506001600160a01b038116620000a457604051631e4fbdf760e01b81525f600482015260240160405180910390fd5b620000af81620000b6565b5062000271565b600780546001600160a01b038381166001600160a01b0319831681179093556040519116919082907f8be0079c531659141344cd1fd0a4f28419497f9722a3daafe3b4186f6b6457e0905f90a35050565b634e487b7160e01b5f52604160045260245ffd5b600181811c908216806200013057607f821691505b6020821081036200014f57634e487b7160e01b5f52602260045260245ffd5b50919050565b601f821115620001a057805f5260205f20601f840160051c810160208510156200017c5750805b601f840160051c820191505b818110156200019d575f815560010162000188565b50505b505050565b81516001600160401b03811115620001c157620001c162000107565b620001d981620001d284546200011b565b8462000155565b602080601f8311600181146200020f575f8415620001f75750858301515b5f19600386901b1c1916600185901b17855562000269565b5f85815260208120601f198616915b828110156200023f578886015182559484019460019091019084016200021e565b50858210156200025d57878501515f19600388901b60f8161c191681555b505060018460011b0185555b505050505050565b6113d1806200027f5f395ff3fe608060405234801561000f575f80fd5b5060043610610110575f3560e01c806370a082311161009e578063a22cb4651161006e578063a22cb46514610228578063b88d4fde1461023b578063c87b56dd1461024e578063e985e9c514610261578063f2fde38b14610274575f80fd5b806370a08231146101f4578063715018a6146102075780638da5cb5b1461020f57806395d89b4114610220575f80fd5b8063095ea7b3116100e4578063095ea7b31461019d57806317d70f7c146101b257806323b872dd146101bb57806342842e0e146101ce5780636352211e146101e1575f80fd5b806275a3171461011457806301ffc9a71461013a57806306fdde031461015d578063081812fc14610172575b5f80fd5b610127610122366004610ecb565b610287565b6040519081526020015b60405180910390f35b61014d610148366004610f5c565b6102f8565b6040519015158152602001610131565b610165610322565b6040516101319190610fc4565b610185610180366004610fd6565b6103b1565b6040516001600160a01b039091168152602001610131565b6101b06101ab366004610fed565b6103d8565b005b61012760085481565b6101b06101c9366004611015565b6103e7565b6101b06101dc366004611015565b610475565b6101856101ef366004610fd6565b610494565b61012761020236600461104e565b61049e565b6101b06104e3565b6007546001600160a01b0316610185565b6101656104f6565b6101b0610236366004611067565b610505565b6101b06102493660046110b4565b610510565b61016561025c366004610fd6565b610528565b61014d61026f366004611189565b61062b565b6101b061028236600461104e565b610658565b5f610290610695565b60088054905f61029f836111ba565b90915550506008546102b185826106c2565b6102f08185858080601f0160208091040260200160405190810160405280939291908181526020018383808284375f9201919091525061072392505050565b949350505050565b5f6001600160e01b03198216632483248360e11b148061031c575061031c82610772565b92915050565b60605f8054610330906111de565b80601f016020809104026020016040519081016040528092919081815260200182805461035c906111de565b80156103a75780601f1061037e576101008083540402835291602001916103a7565b820191905f5260205f20905b81548152906001019060200180831161038a57829003601f168201915b5050505050905090565b5f6103bb826107c1565b505f828152600460205260409020546001600160a01b031661031c565b6103e38282336107f9565b5050565b6001600160a01b03821661041557604051633250574960e11b81525f60048201526024015b60405180910390fd5b5f610421838333610806565b9050836001600160a01b0316816001600160a01b03161461046f576040516364283d7b60e01b81526001600160a01b038086166004830152602482018490528216604482015260640161040c565b50505050565b61048f83838360405180602001604052805f815250610510565b505050565b5f61031c826107c1565b5f6001600160a01b0382166104c8576040516322718ad960e21b81525f600482015260240161040c565b506001600160a01b03165f9081526003602052604090205490565b6104eb610695565b6104f45f6108f8565b565b606060018054610330906111de565b6103e3338383610949565b61051b8484846103e7565b61046f33858585856109e7565b6060610533826107c1565b505f828152600660205260408120805461054c906111de565b80601f0160208091040260200160405190810160405280929190818152602001828054610578906111de565b80156105c35780601f1061059a576101008083540402835291602001916105c3565b820191905f5260205f20905b8154815290600101906020018083116105a657829003601f168201915b505050505090505f6105df60408051602081019091525f815290565b905080515f036105f0575092915050565b81511561062257808260405160200161060a929190611216565b60405160208183030381529060405292505050919050565b6102f084610b0f565b6001600160a01b039182165f90815260056020908152604080832093909416825291909152205460ff1690565b610660610695565b6001600160a01b03811661068957604051631e4fbdf760e01b81525f600482015260240161040c565b610692816108f8565b50565b6007546001600160a01b031633146104f45760405163118cdaa760e01b815233600482015260240161040c565b6001600160a01b0382166106eb57604051633250574960e11b81525f600482015260240161040c565b5f6106f783835f610806565b90506001600160a01b0381161561048f576040516339e3563760e11b81525f600482015260240161040c565b5f82815260066020526040902061073a8282611288565b506040518281527ff8e1a15aba9398e019f0b49df1a4fde98ee17ae345cb5f6b5e2c27f5033e8ce79060200160405180910390a15050565b5f6001600160e01b031982166380ac58cd60e01b14806107a257506001600160e01b03198216635b5e139f60e01b145b8061031c57506301ffc9a760e01b6001600160e01b031983161461031c565b5f818152600260205260408120546001600160a01b03168061031c57604051637e27328960e01b81526004810184905260240161040c565b61048f8383836001610b80565b5f828152600260205260408120546001600160a01b039081169083161561083257610832818486610c84565b6001600160a01b0381161561086c5761084d5f855f80610b80565b6001600160a01b0381165f90815260036020526040902080545f190190555b6001600160a01b0385161561089a576001600160a01b0385165f908152600360205260409020805460010190555b5f8481526002602052604080822080546001600160a01b0319166001600160a01b0389811691821790925591518793918516917fddf252ad1be2c89b69c2b068fc378daa952ba7f163c4a11628f55a4df523b3ef91a4949350505050565b600780546001600160a01b038381166001600160a01b0319831681179093556040519116919082907f8be0079c531659141344cd1fd0a4f28419497f9722a3daafe3b4186f6b6457e0905f90a35050565b6001600160a01b03821661097b57604051630b61174360e31b81526001600160a01b038316600482015260240161040c565b6001600160a01b038381165f81815260056020908152604080832094871680845294825291829020805460ff191686151590811790915591519182527f17307eab39ab6107e8899845ad3d59bd9653f200f220920489ca2b5937696c31910160405180910390a3505050565b6001600160a01b0383163b15610b0857604051630a85bd0160e11b81526001600160a01b0384169063150b7a0290610a29908890889087908790600401611344565b6020604051808303815f875af1925050508015610a63575060408051601f3d908101601f19168201909252610a6091810190611380565b60015b610aca573d808015610a90576040519150601f19603f3d011682016040523d82523d5f602084013e610a95565b606091505b5080515f03610ac257604051633250574960e11b81526001600160a01b038516600482015260240161040c565b805160208201fd5b6001600160e01b03198116630a85bd0160e11b14610b0657604051633250574960e11b81526001600160a01b038516600482015260240161040c565b505b5050505050565b6060610b1a826107c1565b505f610b3060408051602081019091525f815290565b90505f815111610b4e5760405180602001604052805f815250610b79565b80610b5884610ce8565b604051602001610b69929190611216565b6040516020818303038152906040525b9392505050565b8080610b9457506001600160a01b03821615155b15610c55575f610ba3846107c1565b90506001600160a01b03831615801590610bcf5750826001600160a01b0316816001600160a01b031614155b8015610be25750610be0818461062b565b155b15610c0b5760405163a9fbf51f60e01b81526001600160a01b038416600482015260240161040c565b8115610c535783856001600160a01b0316826001600160a01b03167f8c5be1e5ebec7d5bd14f71427d1e84f3dd0314c0f7b2291e5b200ac8c7c3b92560405160405180910390a45b505b50505f90815260046020526040902080546001600160a01b0319166001600160a01b0392909216919091179055565b610c8f838383610d78565b61048f576001600160a01b038316610cbd57604051637e27328960e01b81526004810182905260240161040c565b60405163177e802f60e01b81526001600160a01b03831660048201526024810182905260440161040c565b60605f610cf483610dd9565b60010190505f8167ffffffffffffffff811115610d1357610d136110a0565b6040519080825280601f01601f191660200182016040528015610d3d576020820181803683370190505b5090508181016020015b5f19016f181899199a1a9b1b9c1cb0b131b232b360811b600a86061a8153600a8504945084610d4757509392505050565b5f6001600160a01b038316158015906102f05750826001600160a01b0316846001600160a01b03161480610db15750610db1848461062b565b806102f05750505f908152600460205260409020546001600160a01b03908116911614919050565b5f8072184f03e93ff9f4daa797ed6e38ed64bf6a1f0160401b8310610e175772184f03e93ff9f4daa797ed6e38ed64bf6a1f0160401b830492506040015b6d04ee2d6d415b85acef81000000008310610e43576d04ee2d6d415b85acef8100000000830492506020015b662386f26fc100008310610e6157662386f26fc10000830492506010015b6305f5e1008310610e79576305f5e100830492506008015b6127108310610e8d57612710830492506004015b60648310610e9f576064830492506002015b600a831061031c5760010192915050565b80356001600160a01b0381168114610ec6575f80fd5b919050565b5f805f60408486031215610edd575f80fd5b610ee684610eb0565b9250602084013567ffffffffffffffff80821115610f02575f80fd5b818601915086601f830112610f15575f80fd5b813581811115610f23575f80fd5b876020828501011115610f34575f80fd5b6020830194508093505050509250925092565b6001600160e01b031981168114610692575f80fd5b5f60208284031215610f6c575f80fd5b8135610b7981610f47565b5f5b83811015610f91578181015183820152602001610f79565b50505f910152565b5f8151808452610fb0816020860160208601610f77565b601f01601f19169290920160200192915050565b602081525f610b796020830184610f99565b5f60208284031215610fe6575f80fd5b5035919050565b5f8060408385031215610ffe575f80fd5b61100783610eb0565b946020939093013593505050565b5f805f60608486031215611027575f80fd5b61103084610eb0565b925061103e60208501610eb0565b9150604084013590509250925092565b5f6020828403121561105e575f80fd5b610b7982610eb0565b5f8060408385031215611078575f80fd5b61108183610eb0565b915060208301358015158114611095575f80fd5b809150509250929050565b634e487b7160e01b5f52604160045260245ffd5b5f805f80608085870312156110c7575f80fd5b6110d085610eb0565b93506110de60208601610eb0565b925060408501359150606085013567ffffffffffffffff80821115611101575f80fd5b818701915087601f830112611114575f80fd5b813581811115611126576111266110a0565b604051601f8201601f19908116603f0116810190838211818310171561114e5761114e6110a0565b816040528281528a6020848701011115611166575f80fd5b826020860160208301375f60208483010152809550505050505092959194509250565b5f806040838503121561119a575f80fd5b6111a383610eb0565b91506111b160208401610eb0565b90509250929050565b5f600182016111d757634e487b7160e01b5f52601160045260245ffd5b5060010190565b600181811c908216806111f257607f821691505b60208210810361121057634e487b7160e01b5f52602260045260245ffd5b50919050565b5f8351611227818460208801610f77565b83519083019061123b818360208801610f77565b01949350505050565b601f82111561048f57805f5260205f20601f840160051c810160208510156112695750805b601f840160051c820191505b81811015610b08575f8155600101611275565b815167ffffffffffffffff8111156112a2576112a26110a0565b6112b6816112b084546111de565b84611244565b602080601f8311600181146112e9575f84156112d25750858301515b5f19600386901b1c1916600185901b178555610b06565b5f85815260208120601f198616915b82811015611317578886015182559484019460019091019084016112f8565b508582101561133457878501515f19600388901b60f8161c191681555b5050505050600190811b01905550565b6001600160a01b03858116825284166020820152604081018390526080606082018190525f9061137690830184610f99565b9695505050505050565b5f60208284031215611390575f80fd5b8151610b7981610f4756fea2646970667358221220d5998048e24dacf3b1407eaf8a545f45a32f2a2b7f348dd806e40a54bbef70ae64736f6c63430008180033",
  "linkReferences": {},
  "deployedLinkReferences": {},
  "immutableReferences": {},
  "inputSourceName": "project/contracts/PropertyDeed.sol",
  "buildInfoId": "solc-0_8_24-b5ecb7f1e202510023cf755488b774d0cb37ec48"
}