{
  "_format": "hh3-artifact-1",
  "contractName": "PropertyFractions",
  "sourceName": "contracts/PropertyFractions.sol",
  "abi": [
    {
      "inputs": [
        {
          "internalType": "address",
          "name": "spender",
          "type": "address"
        },
        {
          "internalType": "uint256",
          "name": "allowance",
          "type": "uint256"
        },
        {
          "internalType": "uint256",
          "name": "needed",
          "type": "uint256"
        }
      ],
      "name": "ERC20InsufficientAllowance",
      "type": "error"
    },
    {
      "inputs": [
        {
          "internalType": "address",
          "name": "sender",
          "type": "address"
        },
        {
          "internalType": "uint256",
          "name": "balance",
          "type": "uint256"
        },
        {
          "internalType": "uint256",
          "name": "needed",
          "type": "uint256"
        }
      ],
      "name": "ERC20InsufficientBalance",
      "type": "error"
    },
    {
      "inputs": [
        {
          "internalType": "address",
          "name": "approver",
          "type": "address"
        }
      ],
      "name": "ERC20InvalidApprover",
      "type": "error"
    },
    {
      "inputs": [
        {
          "internalType": "address",
          "name": "receiver",
          "type": "address"
        }
      ],
      "name": "ERC20InvalidReceiver",
      "type": "error"
    },
    {
      "inputs": [
        {
          "internalType": "address",
          "name": "sender",
          "type": "address"
        }
      ],
      "name": "ERC20InvalidSender",
      "type": "error"
    },
    {
      "inputs": [
        {
          "internalType": "address",
          "name": "spender",
          "type": "address"
        }
      ],
      "name": "ERC20InvalidSpender",
      "type": "error"
    },
    {
      "inputs": [],
      "name": "InvalidInitialization",
      "type": "error"
    },
    {
      "inputs": [],
      "name": "NotInitializing",
      "type": "error"
    },
    {
      "anonymous": false,
      "inputs": [
        {
          "indexed": true,
          "internalType": "address",
          "name": "owner",
          "type": "address"
        },
        {
          "indexed": true,
          "internalType": "address",
          "name": "spender",
          "type": "address"
        },
        {
          "indexed": false,
          "internalType": "uint256",
          "name": "value",
          "type": "uint256"
        }
      ],
      "name": "Approval",
      "type": "event"
    },
    {
      "anonymous": false,
      "inputs": [
        {
          "indexed": false,
          "internalType": "uint64",
          "name": "version",
          "type": "uint64"
        }
      ],
      "name": "Initialized",
      "type": "event"
    },
    {
      "anonymous": false,
      "inputs": [
        {
          "indexed": true,
          "internalType": "address",
          "name": "from",
          "type": "address"
        },
        {
          "indexed": true,
          "internalType": "address",
          "name": "to",
          "type": "address"
        },
        {
          "indexed": false,
          "internalType": "uint256",
          "name": "value",
          "type": "uint256"
        }
      ],
      "name": "Transfer",
      "type": "event"
    },
    {
      "inputs": [
        {
          "internalType": "address",
          "name": "owner",
          "type": "address"
        },
        {
          "internalType": "address",
          "name": "spender",
          "type": "address"
        }
      ],
      "name": "allowance",
      "outputs": [
        {
          "internalType": "uint256",
          "name": "",
          "type": "uint256"
        }
      ],
      "stateMutability": "view",
      "type": "function"
    },
    {
      "inputs": [
        {
          "internalType": "address",
          "name": "spender",
          "type": "address"
        },
        {
          "internalType": "uint256",
          "name": "value",
          "type": "uint256"
        }
      ],
      "name": "approve",
      "outputs": [
        {
          "internalType": "bool",
          "name": "",
          "type": "bool"
        }
      ],
      "stateMutability": "nonpayable",
      "type": "function"
    },
    {
      "inputs": [
        {
          "internalType": "address",
          "name": "account",
          "type": "address"
        }
      ],
      "name": "balanceOf",
      "outputs": [
        {
          "internalType": "uint256",
          "name": "",
          "type": "uint256"
        }
      ],
      "stateMutability": "view",
      "type": "function"
    },
    {
      "inputs": [],
      "name": "decimals",
      "outputs": [
        {
          "internalType": "uint8",
          "name": "",
          "type": "uint8"
        }
      ],
      "stateMutability": "pure",
      "type": "function"
    },
    {
      "inputs": [
        {
          "internalType": "string",
          "name": "_name",
          "type": "string"
        },
        {
          "internalType": "string",
          "name": "_symbol",
          "type": "string"
        },
        {
          "internalType": "uint256",
          "name": "_totalSupply",
          "type": "uint256"
        },
        {
          "internalType": "uint256",
          "name": "_propertyId",
          "type": "uint256"
        },
        {
          "internalType": "address",
          "name": "_manager",
          "type": "address"
        }
      ],
      "name": "initialize",
      "outputs": [],
      "stateMutability": "nonpayable",
      "type": "function"
    },
    {
      "inputs": [],
      "name": "manager",
      "outputs": [
        {
          "internalType": "address",
          "name": "",
          "type": "address"
        }
      ],
      "stateMutability": "view",
      "type": "function"
    },
    {
      "inputs": [],
      "name": "name",
      "outputs": [
        {
          "internalType": "string",
          "name": "",
          "type": "string"
        }
      ],
      "stateMutability": "view",
      "type": "function"
    },
    {
      "inputs": [],
      "name": "propertyId",
      "outputs": [
        {
          "internalType": "uint256",
          "name": "",
          "type": "uint256"
        }
      ],
      "stateMutability": "view",
      "type": "function"
    },
    {
      "inputs": [],
      "name": "symbol",
      "outputs": [
        {
          "internalType": "string",
          "name": "",
          "type": "string"
        }
      ],
      "stateMutability": "view",
      "type": "function"
    },
    {
      "inputs": [],
      "name": "totalSupply",
      "outputs": [
        {
          "internalType": "uint256",
          "name": "",
          "type": "uint256"
        }
      ],
      "stateMutability": "view",
      "type": "function"
    },
    {
      "inputs": [
        {
          "internalType": "address",
          "name": "to",
          "type": "address"
        },
        {
          "internalType": "uint256",
          "name": "value",
          "type": "uint256"
        }
      ],
      "name": "transfer",
      "outputs": [
        {
          "internalType": "bool",
          "name": "",
          "type": "bool"
        }
      ],
      "stateMutability": "nonpayable",
      "type": "function"
    },
    {
      "inputs": [
        {
          "internalType": "address",
          "name": "from",
          "type": "address"
        },
        {
          "internalType": "address",
          "name": "to",
          "type": "address"
        },
        {
          "internalType": "uint256",
          "name": "value",
          "type": "uint256"
        }
      ],
      "name": "transferFrom",
      "outputs": [
        {
          "internalType": "bool",
          "name": "",
          "type": "bool"
        }
      ],
      "stateMutability": "nonpayable",
      "type": "function"
    }
  ],
  "bytecode": "0x608060405234801561000f575f80fd5b50610c898061001d5f395ff3fe608060405234801561000f575f80fd5b50600436106100b1575f3560e01c8063481c6a751161006e578063481c6a751461015d57806370a082311461018857806395d89b41146101bc578063a9059cbb146101c4578063dd62ed3e146101d7578063ee7a3b8e146101ea575f80fd5b806306fdde03146100b5578063095ea7b3146100d357806318160ddd146100f657806323b872dd14610127578063313ce5671461013a57806333eea18114610148575b5f80fd5b6100bd6101f2565b6040516100ca91906108a0565b60405180910390f35b6100e66100e1366004610907565b6102b2565b60405190151581526020016100ca565b7f52c63247e1f47db19d5ce0460030c497f067ca4cebf71ba98eeadabe20bace02545b6040519081526020016100ca565b6100e661013536600461092f565b6102cb565b6040515f81526020016100ca565b61015b610156366004610a05565b6102ee565b005b600154610170906001600160a01b031681565b6040516001600160a01b0390911681526020016100ca565b610119610196366004610a87565b6001600160a01b03165f9081525f80516020610c34833981519152602052604090205490565b6100bd610415565b6100e66101d2366004610907565b610453565b6101196101e5366004610aa7565b610460565b6101195f5481565b7f52c63247e1f47db19d5ce0460030c497f067ca4cebf71ba98eeadabe20bace0380546060915f80516020610c348339815191529161023090610ad8565b80601f016020809104026020016040519081016040528092919081815260200182805461025c90610ad8565b80156102a75780601f1061027e576101008083540402835291602001916102a7565b820191905f5260205f20905b81548152906001019060200180831161028a57829003601f168201915b505050505091505090565b5f336102bf8185856104a9565b60019150505b92915050565b5f336102d88582856104bb565b6102e3858585610524565b506001949350505050565b5f6102f7610581565b805490915060ff600160401b820416159067ffffffffffffffff165f8115801561031e5750825b90505f8267ffffffffffffffff16600114801561033a5750303b155b905081158015610348575080155b156103665760405163f92ee8a960e01b815260040160405180910390fd5b845467ffffffffffffffff19166001178555831561039057845460ff60401b1916600160401b1785555b61039a8a8a6105a9565b5f879055600180546001600160a01b0319166001600160a01b0388161790556103c386896105bf565b831561040957845460ff60401b19168555604051600181527fc7f505b2f371ae2175ee4913f4499e1f2633a7b5936321eed1cdaeb6115181d29060200160405180910390a15b50505050505050505050565b7f52c63247e1f47db19d5ce0460030c497f067ca4cebf71ba98eeadabe20bace0480546060915f80516020610c348339815191529161023090610ad8565b5f336102bf818585610524565b6001600160a01b039182165f9081527f52c63247e1f47db19d5ce0460030c497f067ca4cebf71ba98eeadabe20bace016020908152604080832093909416825291909152205490565b6104b683838360016105f3565b505050565b5f6104c68484610460565b90505f1981101561051e578181101561051057604051637dc7a0d960e11b81526001600160a01b038416600482015260248101829052604481018390526064015b60405180910390fd5b61051e84848484035f6105f3565b50505050565b6001600160a01b03831661054d57604051634b637e8f60e11b81525f6004820152602401610507565b6001600160a01b0382166105765760405163ec442f0560e01b81525f6004820152602401610507565b6104b68383836106d7565b5f807ff0c57e16840df040f15088dc2f81fe391c3923bec73e23a9662efc9c229c6a006102c5565b6105b1610810565b6105bb8282610837565b5050565b6001600160a01b0382166105e85760405163ec442f0560e01b81525f6004820152602401610507565b6105bb5f83836106d7565b5f80516020610c348339815191526001600160a01b03851661062a5760405163e602df0560e01b81525f6004820152602401610507565b6001600160a01b03841661065357604051634a1406b160e11b81525f6004820152602401610507565b6001600160a01b038086165f908152600183016020908152604080832093881683529290522083905581156106d057836001600160a01b0316856001600160a01b03167f8c5be1e5ebec7d5bd14f71427d1e84f3dd0314c0f7b2291e5b200ac8c7c3b925856040516106c791815260200190565b60405180910390a35b5050505050565b5f80516020610c348339815191526001600160a01b0384166107115781816002015f8282546107069190610b10565b909155506107819050565b6001600160a01b0384165f90815260208290526040902054828110156107635760405163391434e360e21b81526001600160a01b03861660048201526024810182905260448101849052606401610507565b6001600160a01b0385165f9081526020839052604090209083900390555b6001600160a01b03831661079f5760028101805483900390556107bd565b6001600160a01b0383165f9081526020829052604090208054830190555b826001600160a01b0316846001600160a01b03167fddf252ad1be2c89b69c2b068fc378daa952ba7f163c4a11628f55a4df523b3ef8460405161080291815260200190565b60405180910390a350505050565b610818610887565b61083557604051631afcd79f60e31b815260040160405180910390fd5b565b61083f610810565b5f80516020610c348339815191527f52c63247e1f47db19d5ce0460030c497f067ca4cebf71ba98eeadabe20bace036108788482610b73565b506004810161051e8382610b73565b5f610890610581565b54600160401b900460ff16919050565b5f602080835283518060208501525f5b818110156108cc578581018301518582016040015282016108b0565b505f604082860101526040601f19601f8301168501019250505092915050565b80356001600160a01b0381168114610902575f80fd5b919050565b5f8060408385031215610918575f80fd5b610921836108ec565b946020939093013593505050565b5f805f60608486031215610941575f80fd5b61094a846108ec565b9250610958602085016108ec565b9150604084013590509250925092565b634e487b7160e01b5f52604160045260245ffd5b5f82601f83011261098b575f80fd5b813567ffffffffffffffff808211156109a6576109a6610968565b604051601f8301601f19908116603f011681019082821181831017156109ce576109ce610968565b816040528381528660208588010111156109e6575f80fd5b836020870160208301375f602085830101528094505050505092915050565b5f805f805f60a08688031215610a19575f80fd5b853567ffffffffffffffff80821115610a30575f80fd5b610a3c89838a0161097c565b96506020880135915080821115610a51575f80fd5b50610a5e8882890161097c565b9450506040860135925060608601359150610a7b608087016108ec565b90509295509295909350565b5f60208284031215610a97575f80fd5b610aa0826108ec565b9392505050565b5f8060408385031215610ab8575f80fd5b610ac1836108ec565b9150610acf602084016108ec565b90509250929050565b600181811c90821680610aec57607f821691505b602082108103610b0a57634e487b7160e01b5f52602260045260245ffd5b50919050565b808201808211156102c557634e487b7160e01b5f52601160045260245ffd5b601f8211156104b657805f5260205f20601f840160051c81016020851015610b545750805b601f840160051c820191505b818110156106d0575f8155600101610b60565b815167ffffffffffffffff811115610b8d57610b8d610968565b610ba181610b9b8454610ad8565b84610b2f565b602080601f831160018114610bd4575f8415610bbd5750858301515b5f19600386901b1c1916600185901b178555610c2b565b5f85815260208120601f198616915b82811015610c0257888601518255948401946001909101908401610be3565b5085821015610c1f57878501515f19600388901b60f8161c191681555b505060018460011b0185555b50505050505056fe52c63247e1f47db19d5ce0460030c497f067ca4cebf71ba98eeadabe20bace00a26469706673582212202effe37851b903721c6d574d4f1a823691ffd9289d30a712205eb632e702381d64736f6c63430008180033",
  "linkReferences": {},
  "deployedLinkReferences": {},
  "immutableReferences": {},
  "inputSourceName": "project/contracts/PropertyFractions.sol",
  "buildInfoId": "solc-0_8_24-dfaaa385e88b8fac6ed8ccd746f2e25cbeb3b0ba"
}